S01500006C6564636F6E74726F6C6C65722E7372656396
S11300000EC028C027C026C0B4C024C023C022C04C
S113001021C020C062C01EC01DC01CC01BC0112452
S11300201FBECFE5D2E0DEBFCDBF10E0A0E6B0E05A
S1130030E0E7FFE002C005900D92A436B107D9F7BE
S113004020E0A4E6B0E001C01D92AE37B207E1F7AC
S113005086D48CC7D5CF21E030E001C0220F8A9529
S1130060EAF788B3611104C02095282328BB0895BA
S1130070822B88BB089596B321E030E001C0220FA3
S11300808A95EAF7922381E009F480E00895CF92FB
S1130090DF92EF92FF920F931F93009165001091EE
S11300A066002091670030916800C0906500D09090
S11300B06600E0906700F0906800C01AD10AE20A76
S11300C0F30AC616D706E806F90678F31F910F91CE
S11300D0FF90EF90DF90CF9008951F920F920FB68C
S11300E00F9211240F931F932F933F934F935F937A
S11300F06F937F938F939F93AF93BF93CF93DF932C
S1130100EF93FF9300E610E0C0E0D0E0809164003C
S1130110FE01E759FF4F811105C09081992311F029
S113012061E004C09081981720F460E0F8018081B8
S113013092DF21960F5F1F4FC330D10539F78091AD
S113014064008C5F80936400FF91EF91DF91CF9105
S1130150BF91AF919F918F917F916F915F914F91DB
S11301603F912F911F910F910F900FBE0F901F90F1
S113017018951F920F920FB60F9211248F939F938D
S1130180AF93BF938091650090916600A091670042
S1130190B09168000196A11DB11D809365009093F4
S11301A06600A0936700B0936800BF91AF919F91E0
S11301B08F910F900FBE0F901F901895F89480E1C7
S11301C089BF82E08ABD83BF80E889BD86E080BFA5
S11301D089B7846089BF789408950F931F93CF9350
S11301E0DF938C01EB0182E090E09AD6BC0180E0C1
S11301F090E000D520E030E04AEF56E467D4F801FF
S1130200608371838283938380E090E089D6BC010C
S113021080E090E0EFD420E030E04AEF56E456D49A
S1130220688379838A839B83DF91CF911F910F9198
S11302300895CF92DF92EF92FF9269017A0120E054
S113024030E04AEF56E4DFD5A9D482E090E06DD6E1
S113025020E030E04AEF56E4C701B601D4D59ED47D
S113026080E090E0FF90EF90DF90CF905EC6109218
S1130270690010926A0010926B0008952F923F92C9
S11302804F925F926F927F928F929F92AF92BF92A2
S1130290CF92DF92EF92FF920F931F93CF93DF934E
S11302A0CDB7DEB72C970FB6F894DEBF0FBECDBF27
S11302B01C017A8369835C834B832801390120E024
S11302C030E0A901C701B601FDD381110FC0AB8194
S11302D0BC818D929D92AD92BC921397E981FA8173
S11302E080829182A282B382D101CDC020E030E02D
S11302F040EC50E4C301B20186D52B013C01B7D4D4
S11303004DD4162F70E080E090E076D49B01AC01D0
S1130310C301B20172D369877A878B879C87A7014F
S1130320960160E070E080E89FE367D39B01AC0135
S1130330C501B40168D56D837E838F839887298531
S11303403A854B855C85C701B6015DD59B01AC013F
S113035060E070E080E89FE350D39B01AC01C501ED
S1130360B40151D52B013C0129853A854B855C8527
S113037060E070E080E89FE340D39B01AC01C701DB
S1130380B60141D59B01AC0160E070E080E89FE3D9
S113039034D39B01AC01C501B40135D5123009F445
S11303A048C090F4112369F1113009F072C0F101D1
S11303B04082518262827382A981BA818D929D9218
S11303C0AD92BC92139729C0133009F44AC014307B
S11303D009F05FC0F10160837183828393832D816F
S11303E03E814F815885A981BA812D933D934D93C8
S11303F05C931397EB81FC8180829182A282B38209
S11304005FC0F10180829182A282B382A981BA8104
S11304106D937D938D939C9313972D813E814F8192
S11304205885AB81BC812D933D934D935C93139779
S113043047C02D813E814F815885D1012D933D9335
S11304404D935C931397E981FA8180829182A28211
S1130450B382AB81BC816D937D938D939C931397F1
S11304602FC02D813E814F815885D1012D933D931D
S11304704D935C931397E981FA81408251826282A1
S11304807382AB81BC818D929D92AD92BC92139785
S113049017C0D1018D929D92AD92BC9213972D817C
S11304A03E814F815885A981BA812D933D934D9307
S11304B05C931397EB81FC81408251826282738248
S11304C02C960FB6F894DEBF0FBECDBFDF91CF914F
S11304D01F910F91FF90EF90DF90CF90BF90AF905E
S11304E09F908F907F906F905F904F903F902F9050
S11304F008958F929F92AF92BF92CF92DF92EF9224
S1130500FF920F931F93CF93DF93CDB7DEB72C9752
S11305100FB6F894DEBF0FBECDBF8B019C011986C8
S11305201A861B861C861D821E821F8218861982CB
S11305301A821B821C82812C912C80E8A82E8FE3C6
S1130540B82E75016401AE014F5F5F4FBE016B5F52
S11305507F4FCE01099692DE20E030E04FE753E46E
S113056069857A858B859C854ED418D36093690000
S113057020E030E04FE753E46D817E818F819885E0
S113058042D40CD360936A0020E030E04FE753E498
S113059069817A818B819C8136D400D360936B000E
S11305A02C960FB6F894DEBF0FBECDBFDF91CF916E
S11305B01F910F91FF90EF90DF90CF90BF90AF907D
S11305C09F908F9008958F929F92AF92BF92CF92F7
S11305D0DF92EF92FF920F931F93CF93DF9383E009
S11305E04ADDC82F90917C00892F8D7FC1F4C11101
S11305F016C081E080937C00E0917D00F0E0EE0F76
S1130600FF1FEE0FFF1FE459FF4F6081718182814C
S113061093816FDF6AEF70E080E090E093C19130E6
S113062009F070C0C130A9F52091700030917100BB
S1130630409172005091730060916C0070916D0054
S113064080916E0090916F00F4DD82E080937C00D5
S11306504091650050916600609167007091680058
S1130660409378005093790060937A0070937B00F4
S113067080917D00882329F0813029F410927D0037
S113068002C0C0937D006AEF70E080E090E0FFDC80
S113069055C1C11153C1C0917D00D0E0CC0FDD1F05
S11306A0CC0FDD1F8E0104591F4F2FE632E143E8C2
S11306B05AE3F80160817181828193819FD16B013A
S11306C07C0120E030E040E85FE399D3181634F071
S11306D0F801C082D182E282F3820DC0C701B60163
S11306E0C6D29B01AC01C701B60187D1F801608372
S11306F0718382839383C459DF4F688179818A81AE
S11307009B811BC19330E9F0923009F05BC080916A
S1130710650090916600A0916700B09168004091D7
S113072078005091790060917A0070917B00841B6D
S1130730950BA60BB70B813D9740A105B10508F4B5
S1130740FDC095DD64EF71E080E090E0A0DC609195
S11307506C0070916D0080916E0090916F00C9DE05
S113076064EF71E080E090E092DC81DD64EF71E0A1
S113077080E090E08CDC6091700070917100809159
S1130780720090917300B5DE64EF71E080E090E058
S11307907EDC6DDD64EF71E080E090E078DC109247
S11307A07C008091650090916600A0916700B091F3
S11307B068008093740090937500A0937600B093C2
S11307C07700BCC09111BAC0609165007091660059
S11307D080916700909168000091740010917500F9
S11307E02091760030917700601B710B820B930B84
S11307F020EC3DE540E050E071D30091650010919C
S1130800660020916700309168008090700090909D
S11308107100A0907200B090730050916C004091F0
S11308206D0030916E0020916F00603EEEE27E0715
S11308308105910520F4052F142FE90107C08401D7
S1130840DA2DCB2D852E942EA32EB22E20EE3EE251
S113085040E050E043D3613AFFE07F078105910512
S113086020F4B8018D2F9C2F68C0605A7F40810905
S11308709109C0D120E030E04AEF55E427D16B0163
S11308807C019401A501B8018D2F9C2FB6D020E0E6
S113089030E040E05FE3B3D2181654F420E030E0D7
S11308A040E85FE3B401C501A9D04B015C0118C065
S11308B098014D2F5C2FB401C5019FD020E030E09A
S11308C040E05FE39CD218165CF420E030E040E89E
S11308D05FE3B8018D2F9C2F91D08B01D82FC92FA6
S11308E0A7019601B401C5018ED24B015C01A70199
S11308F0960160E070E080E89FE37FD09B01AC014B
S1130900B8018D2F9C2F7FD29B01AC01C501B4018E
S113091075D06B017C0120E030E040E85FE36FD2EA
S113092087FD09C020E030E040E85FE3C701B6017D
S113093064D06B017C01C701B601DBDD64E170E0CA
S113094080E090E0DF91CF911F910F91FF90EF90A5
S1130950DF90CF90BF90AF909F908F9098CB87E01F
S113096087BB87B387BBC39A29DC10927C00809134
S1130970650090916600A0916700B0916800809333
S1130980740090937500A0937600B0937700109252
S11309907D0083E070DB811129C08FE692E1A3E83A
S11309A0BAE380936C0090936D00A0936E00B093B3
S11309B06F0089E891E4A0E0BFE380937000909316
S11309C07100A0937200B09373009C01AD016FE6B7
S11309D072E183E89AE32DDC6AEF70E080E090E056
S11309E056DB83E048DB8823B9F305C060E770E099
S11309F08CE690E0F2DBE7DDFECF5058BB27AA2758
S1130A000ED0ACC19DD130F0A2D120F031F49F3F83
S1130A1011F41EF492C10EF4E095E7FB5FC1E92FD7
S1130A20AED180F3BA17620773078407950718F0ED
S1130A3071F49EF5DDC10EF4E0950B2EBA2FA02DB6
S1130A400B01B90190010C01CA01A0011124FF2777
S1130A50591B99F0593F50F4503E68F11A16F04072
S1130A60A22F232F342F4427585FF3CF4695379571
S1130A702795A795F0405395C9F77EF41F16BA0B36
S1130A80620B730B840BBAF09150A1F0FF0FBB1FE4
S1130A90661F771F881FC2F70EC0BA0F621F731F2D
S1130AA0841F48F4879577956795B795F7959E3F8A
S1130AB008F0B3CF9395880F08F09927EE0F979518
S1130AC087950895E7D008F481E008950CD046C1D5
S1130AD03ED140F035D130F021F45F3F19F0FEC033
S1130AE0511187C12AC14BD198F39923C9F35523D6
S1130AF0B1F3951B550BBB27AA276217730784070D
S1130B0038F09F5F5F4F220F331F441FAA1FA9F3C2
S1130B1033D00E2E3AF0E0E830D091505040E695B4
S1130B20001CCAF729D0FE2F27D0660F771F881F15
S1130B30BB1F261737074807AB07B0E809F0BB0B04
S1130B40802DBF01FF2793585F4F2AF09E3F510528
S1130B5068F0C4C04EC15F3FECF3983EDCF3869569
S1130B6077956795B795F7959F5FC9F7880F911D9E
S1130B709695879597F90895E1E0660F771F881F8A
S1130B80BB1F621773078407BA0720F0621B730B3D
S1130B90840BBA0BEE1F88F7E0950895F8D088F01F
S1130BA09F5790F0B92F9927B751A0F0D1F0660F55
S1130BB0771F881F991F1AF0BA95C9F712C0B13070
S1130BC081F016D1B1E0089513C1672F782F8827DB
S1130BD0B85F39F0B93FCCF3869577956795B395AF
S1130BE0D9F73EF490958095709561957F4F8F4F1E
S1130BF09F4F0895E89409C097FB3EF49095809523
S1130C00709561957F4F8F4F9F4F9923A9F0F92FCE
S1130C1096E9BB279395F695879577956795B7954C
S1130C20F111F8CFFAF4BB0F11F460FF1BC06F5F32
S1130C307F4F8F4F9F4F16C0882311F096E911C044
S1130C40772321F09EE8872F762F05C0662371F065
S1130C5096E8862F70E060E02AF09A95660F771F79
S1130C60881FDAF7880F9695879597F90895A9D084
S1130C7080F09F3740F491110EF0BBC060E070E04B
S1130C8080E89FEB089526F41B16611D711D811DDC
S1130C902BC045C0990F0008550FAA0BE0E8FEEFE2
S1130CA016161706E807F907C0F012161306E4072C
S1130CB0F50798F0621B730B840B950B39F40A2625
S1130CC061F0232B242B252B21F408950A2609F403
S1130CD0A140A6958FEF811D811D089597F99F6707
S1130CE080E870E060E00895882371F4772321F0B0
S1130CF09850872B762F07C0662311F499270DC0CF
S1130D009051862B70E060E02AF09A95660F771F69
S1130D10881FDAF7880F9695879597F908959F3F6E
S1130D2031F0915020F4879577956795B795880FA2
S1130D30911D9695879597F908959FEF80EC0895F6
S1130D4000240A94161617061806090608950024A6
S1130D500A9412161306140605060895092E039420
S1130D60000C11F4882352F0BB0F40F4BF2B11F494
S1130D7060FF04C06F5F7F4F8F4F9F4F089557FDF3
S1130D809058440F551F59F05F3F71F04795880FF5
S1130D9097FB991F61F09F3F79F08795089512168C
S1130DA013061406551FF2CF4695F1DF08C0161638
S1130DB017061806991FF1CF8695710561050894E9
S1130DC00895E5DFA0F0BEE7B91788F4BB279F3884
S1130DD060F41616B11D672F782F8827985FF7CF18
S1130DE0869577956795B11D93959639C8F30895BF
S1130DF0E894BB2766277727CB0197F908954ADF44
S1130E0008F48FEF08950AD0A9CF9ADF28F09FDF66
S1130E1018F0952309F062CF90CFEBCFB0DFA8F3A1
S1130E209923D9F35523C9F3950F50E0551FAA27E9
S1130E30EE27FF27BB2700240894679520F4E20FD0
S1130E40F31FB41F0A1E220F331F441FAA1F6695E7
S1130E50A9F7779530F4F30FB41F0A1E121E08F495
S1130E606395330F441FAA1F221F769599F7879520
S1130E7020F4B40F0A1E121E631F440FAA1F221F60
S1130E80331F8695A9F7862F712D602D11249F5746
S1130E9050408AF0E1F088234AF0EE0FFF1FBB1F99
S1130EA0661F771F881F91505040A9F79E3F510538
S1130EB070F014CF9ECF5F3FECF3983EDCF3869541
S1130EC077956795B795F795E7959F5FC1F7FE2BE3
S1130ED0880F911D9695879597F90895A1E21A2E8A
S1130EE0AA1BBB1BFD010DC0AA1FBB1FEE1FFF1FCA
S1130EF0A217B307E407F50720F0A21BB30BE40B1A
S1130F00F50B661F771F881F991F1A9469F7609560
S1130F107095809590959B01AC01BD01CF0108951A
S1130F20A8E1B0E042E050E005C012D0272F11C084
S1130F30DC01CB01FC01E199FECF06C0FFBBEEBB97
S1130F40E09A31960DB20D9241505040B8F7089591
S1130F50262FE199FECF1CBA9FBB8EBB2DBB0FB6CB
S1130F60F894E29AE19A0FBE01960895F894FFCF9F
S1070F700201000076
S9030000FC
