:100000000EC028C027C026C0B4C024C023C022C050
:1000100021C020C062C01EC01DC01CC01BC0112456
:100020001FBECFE5D2E0DEBFCDBF10E0A0E6B0E05E
:10003000E2E2FEE002C005900D92A436B107D9F7C6
:1000400020E0A4E6B0E001C01D92AA37B207E1F7B4
:1000500006D4E5C6D5CF21E030E001C0220F8A9555
:10006000EAF788B3611104C02095282328BB0895BE
:10007000822B88BB089596B321E030E001C0220FA7
:100080008A95EAF7922381E009F480E00895CF92FF
:10009000DF92EF92FF920F931F93009165001091F2
:1000A00066002091670030916800C0906500D09094
:1000B0006600E0906700F0906800C01AD10AE20A7A
:1000C000F30AC616D706E806F90678F31F910F91D2
:1000D000FF90EF90DF90CF9008951F920F920FB690
:1000E0000F9211240F931F932F933F934F935F937E
:1000F0006F937F938F939F93AF93BF93CF93DF9330
:10010000EF93FF9300E610E0C0E0D0E08091640040
:10011000FE01E759FF4F811105C09081992311F02D
:1001200061E004C09081981720F460E0F8018081BC
:1001300092DF21960F5F1F4FC330D10539F78091B1
:1001400064008C5F80936400FF91EF91DF91CF9109
:10015000BF91AF919F918F917F916F915F914F91DF
:100160003F912F911F910F910F900FBE0F901F90F5
:1001700018951F920F920FB60F9211248F939F9391
:10018000AF93BF938091650090916600A091670046
:10019000B09168000196A11DB11D809365009093F8
:1001A0006600A0936700B0936800BF91AF919F91E4
:1001B0008F910F900FBE0F901F901895F89480E1CB
:1001C00089BF82E08ABD83BF80E889BD86E080BFA9
:1001D00089B7846089BF78940895EF92FF920F9356
:1001E0001F93CF93DF937C018B01EA0184E090E0C1
:1001F000F0D5BC0180E090E078D420E030E04AEF18
:1002000056E4DFD3F701608371838283938382E0B6
:1002100090E0DFD5BC0180E090E067D420E030E0E2
:100220004AEF56E4CED3F8016083718382839383CF
:1002300080E090E0CED5BC0180E090E056D420E094
:1002400030E04AEF56E4BDD3688379838A839B8389
:10025000DF91CF911F910F91FF90EF9008958F92B2
:100260009F92AF92BF92CF92DF92EF92FF920F9345
:100270001F9349015A016701780120E030E04AEFFD
:1002800056E43CD506D484E090E0A8D520E030E0E8
:100290004AEF56E4C501B40131D5FBD382E090E0CA
:1002A0009DD520E030E04AEF56E4C701B60126D5DF
:1002B000F0D380E090E01F910F91FF90EF90DF90DE
:1002C000CF90BF90AF909F908F9088C52F923F9214
:1002D0004F925F926F927F928F929F92AF92BF9256
:1002E000CF92DF92EF92FF920F931F93CF93DF9302
:1002F000CDB7DEB72C970FB6F894DEBF0FBECDBFDB
:100300001C017A8369835C834B832801390120E0D7
:1003100030E0A901C701B60150D381110FC0AB81F4
:10032000BC818D929D92AD92BC921397E981FA8126
:1003300080829182A282B382D101CDC020E030E0E0
:1003400040EC50E4C301B201D9D42B013C010AD4E2
:10035000A0D3162F70E080E090E0C9D39B01AC01E0
:10036000C301B201C5D269877A878B879C87A701B1
:10037000960160E070E080E89FE3BAD29B01AC0197
:10038000C501B401BBD46D837E838F839887298593
:100390003A854B855C85C701B601B0D49B01AC01A1
:1003A00060E070E080E89FE3A3D29B01AC01C5014F
:1003B000B401A4D42B013C0129853A854B855C8589
:1003C00060E070E080E89FE393D29B01AC01C7013D
:1003D000B60194D49B01AC0160E070E080E89FE33B
:1003E00087D29B01AC01C501B40188D4123009F455
:1003F00048C090F4112369F1113009F072C0F10185
:100400004082518262827382A981BA818D929D92CB
:10041000AD92BC92139729C0133009F44AC014302E
:1004200009F05FC0F10160837183828393832D8122
:100430003E814F815885A981BA812D933D934D937B
:100440005C931397EB81FC8180829182A282B382BC
:100450005FC0F10180829182A282B382A981BA81B8
:100460006D937D938D939C9313972D813E814F8146
:100470005885AB81BC812D933D934D935C9313972D
:1004800047C02D813E814F815885D1012D933D93E9
:100490004D935C931397E981FA8180829182A282C5
:1004A000B382AB81BC816D937D938D939C931397A5
:1004B0002FC02D813E814F815885D1012D933D93D1
:1004C0004D935C931397E981FA8140825182628255
:1004D0007382AB81BC818D929D92AD92BC92139739
:1004E00017C0D1018D929D92AD92BC9213972D8130
:1004F0003E814F815885A981BA812D933D934D93BB
:100500005C931397EB81FC814082518262827382FB
:100510002C960FB6F894DEBF0FBECDBFDF91CF9102
:100520001F910F91FF90EF90DF90CF90BF90AF9011
:100530009F908F907F906F905F904F903F902F9003
:1005400008954F925F926F927F928F929F92AF9297
:10055000BF92CF92DF92EF92FF920F931F93CF93B0
:10056000DF93CDB7DEB72C970FB6F894DEBF0FBE82
:10057000CDBF4090720050907300609074007090F6
:10058000750060917600709177008091780090916D
:1005900079009B01AC01ADD120E030E040E85FE3A1
:1005A000A7D16B017C0120E030E0A901A3D318168C
:1005B00024F0F7FAF094F7F8F09460916C007091E1
:1005C0006D0080916E0090916F009B01AC0191D104
:1005D00020E030E040E85FE38BD14B015C0120E09C
:1005E00030E0A90187D3181624F0B7FAB094B7F811
:1005F000B09419861A861B861C861D821E821F8255
:10060000188619821A821B821C8293018201AE0114
:100610004F5F5F4FBE016B5F7F4FCE01099656DE85
:1006200020E030E04FE753E469857A858B859C852F
:1006300065D32FD26093690020E030E04FE753E4A8
:100640006D817E818F81988559D323D260936A0012
:1006500020E030E04FE753E469817A818B819C810F
:100660004DD317D260936B002C960FB6F894DEBF73
:100670000FBECDBFDF91CF911F910F91FF90EF90F3
:10068000DF90CF90BF90AF909F908F907F906F90B2
:100690005F904F900895CF92DF92EF92FF920F9369
:1006A0001F93CF9383E0E7DCC82F809170008130E7
:1006B00049F4C1112DC0109270006AEF70E080E023
:1006C00090E0C5C0811124C0C13011F5E0906C00EC
:1006D000F0906D0000916E0010916F0020917600F7
:1006E00030917700409178005091790060917200CC
:1006F000709173008091740090917500B0DDC0938B
:100700007000109271006AEF70E080E090E0BFDC52
:1007100080917000811197C080917100811130C06B
:100720002AE037ED43EA5BE3609172007091730059
:100730008091740090917500DCD06B017C01609316
:10074000720070937300809374009093750020E0A2
:1007500030E040E85FE3CED2181684F4C701B6015A
:1007600001D29B01AC01C701B601C2D060937200F7
:10077000709373008093740090937500E2DE63C001
:10078000813079F52AE037ED43E25CE36091760051
:10079000709177008091780090917900AAD06B01D8
:1007A0007C0160937600709377008093780090933B
:1007B000790020E030E040E85FE39CD21816F4F6C0
:1007C000C701B601CFD19B01AC01C701B60190D0E2
:1007D000609376007093770080937800909379000F
:1007E000CDCF823081F52AE037ED43E25CE36091C2
:1007F0006C0070916D0080916E0090916F0079D0C7
:100800006B017C0160936C0070936D0080936E00AF
:1008100090936F0020E030E040E85FE36BD2181661
:100820000CF0ACCFC701B6019DD19B01AC01C70153
:10083000B6015ED060936C0070936D0080936E0083
:1008400090936F009BCF64E170E080E090E0CF91E7
:100850001F910F91FF90EF90DF90CF9018CC87E021
:1008600087BBACDC81E0809370001092710083E064
:1008700002DC811133C08FE692E1A3E8BAE38093F2
:10088000720090937300A0937400B093750080E0A1
:1008900090E0A0E8BFE38093760090937700A09368
:1008A0007800B093790080936C0090936D00A093D2
:1008B0006E00B0936F007C018D019C01AD016FE66D
:1008C00072E183E89AE3CBDC6AEF70E080E090E0CD
:1008D000DEDB83E0D0DB8823B9F307C04CE650E0D1
:1008E00066E770E082E790E078DC2BDED4DEFECFB6
:1008F0005058BB27AA270ED0ACC19DD130F0A2D151
:1009000020F031F49F3F11F41EF492C10EF4E095F3
:10091000E7FB5FC1E92FAED180F3BA176207730717
:100920008407950718F071F49EF5DDC10EF4E0958B
:100930000B2EBA2FA02D0B01B90190010C01CA0199
:10094000A0011124FF27591B99F0593F50F4503E44
:1009500068F11A16F040A22F232F342F4427585F36
:10096000F3CF469537952795A795F0405395C9F74E
:100970007EF41F16BA0B620B730B840BBAF0915006
:10098000A1F0FF0FBB1F661F771F881FC2F70EC0A5
:10099000BA0F621F731F841F48F487957795679578
:1009A000B795F7959E3F08F0B3CF9395880F08F061
:1009B0009927EE0F979587950895E7D008F481E081
:1009C00008950CD046C13ED140F035D130F021F42D
:1009D0005F3F19F0FEC0511187C12AC14BD198F376
:1009E0009923C9F35523B1F3951B550BBB27AA27B0
:1009F00062177307840738F09F5F5F4F220F331F22
:100A0000441FAA1FA9F333D00E2E3AF0E0E830D0ED
:100A100091505040E695001CCAF729D0FE2F27D0F0
:100A2000660F771F881FBB1F261737074807AB07BE
:100A3000B0E809F0BB0B802DBF01FF2793585F4F33
:100A40002AF09E3F510568F0C4C04EC15F3FECF3F1
:100A5000983EDCF3869577956795B795F7959F5FF8
:100A6000C9F7880F911D9695879597F90895E1E04C
:100A7000660F771F881FBB1F621773078407BA07AB
:100A800020F0621B730B840BBA0BEE1F88F7E09506
:100A90000895F8D088F09F5790F0B92F9927B75153
:100AA000A0F0D1F0660F771F881F991F1AF0BA9532
:100AB000C9F712C0B13081F016D1B1E0089513C169
:100AC000672F782F8827B85F39F0B93FCCF3869528
:100AD00077956795B395D9F73EF490958095709585
:100AE00061957F4F8F4F9F4F0895E89409C097FB02
:100AF0003EF490958095709561957F4F8F4F9F4FF5
:100B00009923A9F0F92F96E9BB279395F695879538
:100B100077956795B795F111F8CFFAF4BB0F11F4FB
:100B200060FF1BC06F5F7F4F8F4F9F4F16C08823A2
:100B300011F096E911C0772321F09EE8872F762FD8
:100B400005C0662371F096E8862F70E060E02AF019
:100B50009A95660F771F881FDAF7880F9695879505
:100B600097F90895A9D080F09F3740F491110EF0C5
:100B7000BBC060E070E080E89FEB089526F41B1690
:100B8000611D711D811D2BC045C0990F0008550FB7
:100B9000AA0BE0E8FEEF16161706E807F907C0F003
:100BA00012161306E407F50798F0621B730B840B0B
:100BB000950B39F40A2661F0232B242B252B21F4E5
:100BC00008950A2609F4A140A6958FEF811D811D85
:100BD000089597F99F6780E870E060E008958823A2
:100BE00071F4772321F09850872B762F07C0662366
:100BF00011F499270DC09051862B70E060E02AF027
:100C00009A95660F771F881FDAF7880F9695879554
:100C100097F908959F3F31F0915020F4879577958B
:100C20006795B795880F911D9695879597F90895C3
:100C30009FEF80EC089500240A94161617061806F4
:100C40000906089500240A941216130614060506D0
:100C50000895092E0394000C11F4882352F0BB0F61
:100C600040F4BF2B11F460FF04C06F5F7F4F8F4FC4
:100C70009F4F089557FD9058440F551F59F05F3FFF
:100C800071F04795880F97FB991F61F09F3F79F0AE
:100C900087950895121613061406551FF2CF469530
:100CA000F1DF08C0161617061806991FF1CF8695B2
:100CB0007105610508940895E5DFA0F0BEE7B91756
:100CC00088F4BB279F3860F41616B11D672F782F64
:100CD0008827985FF7CF869577956795B11D93958F
:100CE0009639C8F30895E894BB2766277727CB0188
:100CF00097F908954ADF08F48FEF08950AD0A9CF35
:100D00009ADF28F09FDF18F0952309F062CF90CF8B
:100D1000EBCFB0DFA8F39923D9F35523C9F3950F8F
:100D200050E0551FAA27EE27FF27BB270024089471
:100D3000679520F4E20FF31FB41F0A1E220F331F22
:100D4000441FAA1F6695A9F7779530F4F30FB41FD7
:100D50000A1E121E08F46395330F441FAA1F221F98
:100D6000769599F7879520F4B40F0A1E121E631F1B
:100D7000440FAA1F221F331F8695A9F7862F712DB6
:100D8000602D11249F5750408AF0E1F088234AF0EB
:100D9000EE0FFF1FBB1F661F771F881F915050402B
:100DA000A9F79E3F510570F014CF9ECF5F3FECF343
:100DB000983EDCF3869577956795B795F795E79517
:100DC0009F5FC1F7FE2B880F911D9695879597F928
:100DD0000895A8E1B0E042E050E005C012D0272F0E
:100DE00011C0DC01CB01FC01E199FECF06C0FFBBC5
:100DF000EEBBE09A31960DB20D9241505040B8F7DB
:100E00000895262FE199FECF1CBA9FBB8EBB2DBB48
:100E10000FB6F894E29AE19A0FBE01960895F894FD
:020E2000FFCF02
:040E220002010000C9
:00000001FF
